:100000000C948C080C94B4080C94B4080C94B408A8
:100010000C94B4080C94B4080C94B4080C94B40870
:100020000C94B4080C94B4080C94B4080C94B40860
:100030000C94B4080C94B4080C94B4080C94B40850
:100040000C945C240C94B4080C94B4080C94B4087C
:100050000C94B4080C94B4080C94B4080C94B40830
:100060000C94D0180C94B40807634236B79BD8A7F9
:100070001A39685618AEBAAB558C1D3CB7CC5763CD
:10008000BD6DEDFD753EF6177231BF000000803F7B
:1000900008000000BE922449123EABAAAA2ABECD97
:1000A000CCCC4C3E00000080BEABAAAAAA3E000009
:1000B0000000BF000000803F000000000008417801
:1000C000D3BB4387D1133D190E3CC3BD4282AD2B38
:1000D0003E68EC8276BED98FE1A93E4C80EFFFBE30
:1000E00001C4FF7F3F00000000007FFFF0400010D0
:1000F000DDDDD0DDDDD0DDDDD04000107FFFF07F25
:10010000FFF0400010C1DDD0C1DDD0C1DDD0400026
:10011000107FFFF07FFFF0400010C01DD0C01DD049
:10012000C01DD04000107FFFF07FFFF0400010C0E6
:1001300001D0C001D0C001D04000107FFFF07FFF90
:10014000F0400010C00010C00010C00010400010AF
:100150007FFFF0003E0000FF8003FFE003FFE007A9
:10016000FFF00FFFF80FE3F81FC1FC1F80FC1F809A
:10017000FC1F80FC1F007C3F007E3F007E3F007E16
:100180003F007E3F007E3F007E3F007E3F007E3F7F
:10019000007E3F007E3F007E3F007E3F007E3F00AE
:1001A0007E3F007E3F007E1F007C1F80FC1F80FC86
:1001B0001F80FC1FC1FC0FE3F80FFFF807FFF003DF
:1001C000FFE003FFE000FF80003E000007C00007E3
:1001D000C0000FC0000FC0001FC0003FC0003FC0E4
:1001E000007FC000FFC003FFC007FFC00FFFC00FAC
:1001F000EFC00FCFC00F0FC00E0FC0080FC0000F11
:10020000C0000FC0000FC0000FC0000FC0000FC023
:10021000000FC0000FC0000FC0000FC0000FC000D3
:100220000FC0000FC0000FC0000FC0000FC0000FB4
:10023000C0000FC0000FC0000FC0000FC0000FC0F3
:10024000000000007F0001FFC003FFF007FFF80F70
:10025000FFF81FFFFC1FC1FC1F80FE3F807E3F0098
:100260007E3F007E07007E00007E00007E0000FED4
:100270000000FC0001FC0003FC0003F80007F8008C
:100280000FF0001FF0003FE0007FC000FF8001FF83
:100290000001FE0003FC0007FC000FF8000FF00057
:1002A0001FE0001FC0003FFFFE3FFFFE3FFFFE7F3D
:1002B000FFFE7FFFFE7FFFFE000000007F0001FFCA
:1002C000C007FFE007FFF00FFFF01FFFF81FC3F8A4
:1002D0001F81FC3F80FC3F00FC0700FC0000FC008D
:1002E00000FC0001F80007F8001FF0001FE0003FCD
:1002F000C0003FE0003FF0003FF80001FC0000FCC0
:100300000000FC00007E00007E00007E00007E07F2
:10031000007E3F007E3F007E3F80FC1FC1FC1FE34C
:10032000FC0FFFF80FFFF807FFF003FFE001FF806D
:10033000007E000001F00003F00007F00007F0006D
:100340000FF0000FF0001FF0001FF0003FF0003F23
:10035000F0007FF000FFF000FBF001FBF001F3F094
:1003600003F3F003E3F007E3F007C3F00FC3F01F5C
:1003700083F01F83F03F03F03F03F07E03F07FFF25
:10038000FF7FFFFF7FFFFF7FFFFF7FFFFF7FFFFFFD
:100390000003F00003F00003F00003F00003F0009E
:1003A00003F00003F00003F000000000000003FF72
:1003B000FE03FFFE03FFFE07FFFE07FFFE07FFFE33
:1003C00007E00007E00007E0000FE0000FC0000FAB
:1003D000CF800FDFE00FFFF00FFFF80FFFFC1FFFD4
:1003E000FC1FE1FE1F80FE03807E00007F00003FB7
:1003F00000003F00003F00003F00003F00003F07BB
:10040000003F3F003F3F807E3F807E1FC0FE1FE1D8
:10041000FC0FFFFC0FFFF807FFF003FFE001FFC038
:10042000007F00003F0000FFC001FFE003FFF00776
:10043000FFF807FFF80FE3F80FC1FC1F80FC1F80D7
:10044000E01F00001F00001F00003F00003F1F00D2
:100450003F7FC03FFFE03FFFF03FFFF83FFFF83F27
:10046000E3FC3F80FC3F80FE3F007E3F007E3F007C
:100470007E3F007E3F007E1F007E1F007E1F807E2D
:100480001F80FC0FC0FC0FE1FC07FFF807FFF8031B
:10049000FFF001FFE000FFC0003F000000003FFF51
:1004A000FE3FFFFE3FFFFE3FFFFE3FFFFE3FFFFE22
:1004B0000000FC0001F80003F80003F00007F00062
:1004C00007E0000FC0000FC0001F80001F80003F2A
:1004D00080003F00003F00007E00007E00007E00A4
:1004E00000FC0000FC0000FC0000FC0001F8000122
:1004F000F80001F80001F80001F80001F00003F035
:100500000003F00003F00003F00003F00003F0002C
:10051000000000007F0001FFC003FFE007FFF00FB5
:10052000FFF80FFFF81FE3FC1FC1FC1F80FC1F80BA
:10053000FC1F80FC1F80FC1F80FC0FC1F80FE3F83C
:1005400007FFF003FFE001FFC003FFE007FFF00F2C
:10055000FFF80FE3FC1F80FC1F80FC3F007E3F0084
:100560007E3F007E3F007E3F007E3F007E3F007E5C
:100570003F80FE1FC0FC1FE3FC1FFFFC0FFFF807BE
:10058000FFF003FFE001FFC0007F0000FE0003FF5B
:100590008007FFC00FFFE01FFFF01FFFF03FC3F811
:1005A0003F01F83F00FC7E00FC7E007C7E007C7EEC
:1005B000007E7E007E7E007E7E007E7E007E7F004E
:1005C000FE3F81FE3FC3FE1FFFFE1FFFFE0FFFFE2B
:1005D00007FFFE03FF7E00FC7E00007E00007C0023
:1005E000007C00007C0700FC3F00FC3F81F81FC33B
:1005F000F81FFFF01FFFF00FFFE007FFC003FF0031
:1006000000FC0000000000000000000000000000EE
:1006100000000000000000000000000000000000DA
:1006200000000000000000000000000000000000CA
:1006300000000000000000000000000000000000BA
:1006400000000000000000000000000000000000AA
:100650000000000FFFBF00000000000000000000CD
:100660000000000FFFBF00000000000000000000BD
:100670003000000FFFBF000000000000000000007D
:100680007801C00FFFBF0000000000000000000064
:100690007801C00FFFBF0000000000000000000450
:1006A0007801C001F8000000000000000000000E0A
:1006B0002001C001F83F3FFC7E7E00000000000CDE
:1006C000E001C001F83F3FFE7E7E00000000001DFB
:1006D000F003C001F83F3FFF7E7E00000000001BDA
:1006E000F80FC001F83F3FFF7E7E00000000003B96
:1006F000FC0FC001F83F3F3F7E7E00000000003746
:10070000EF9FC001F83F3F3F7E7E000000000007E2
:10071000C7DFC001F83F3F3F7E7E00000000000FB2
:10072000C09FC001F83F3F3F7E7E00000000000FE9
:10073000C03FC001F83F3F3F7E7E00000000000F39
:10074000F01FC001F83F3F3F7E7E00000000000F19
:10075000F81FC001F83F3F3F7E7E00000000000E02
:10076000780FC001F83F3F3F7E7E00000000000E82
:10077000180FC001F83F3F3F7FFE00000000000E51
:100780001C0FC001F83F3F3F7FFE00000000000E3D
:100790001C1FC001F83F3F3F3FFE00000000000E5D
:1007A0001CFFC001F83F3F3F007E00000000001C1E
:1007B00009FFC000000000007E7E00000000001C59
:1007C00001FFC000000000007FFE000000000038B4
:1007D0003FFFC000000000007FFE00000000003866
:1007E0007FFFC000000000003FFC00000000001080
:1007F00000000000000000001FF8000000000000E2
:1008000000000000000000000000000000000000E8
:1008100000000000000000000000000000000000D8
:1008200000000000000000000000000000000000C8
:1008300000000000000000000000000000000000B8
:10084000000000FFFFFFFFFFFFFFFFFFFFFFFFFFB5
:10085000FFFFFFFFFFFFFFFFFFFFFFFFFFFFFFFFA8
:10086000FFFFFFFF007C0FFF03FFFFFFFFFFFFFF06
:10087000FFFFFFFF007C0FFF03FFFFFFFFFFFFFFF6
:10088000FFFFFFFF007C0E0F03FFFFFFFFFFC1FF15
:10089000FFFFFFFE007C0E0F03FFFFFFFFFFC1FF06
:1008A000FFFFFFFE003C0E0F03FFFFFFFFFFC1FF36
:1008B000FFFFFFFE003C0E0FFFFFFFFFFFFFC1FF2A
:1008C000FFFFFFFE083C0C0103020607E007803C27
:1008D00000F023FE083C0C0103000003C001803837
:1008E000003003FC083C0C01030000038001803051
:1008F000003003FC081C0C01030000038001803061
:10090000003003FC181C0C010303038380018030BA
:1009100000303FFC1C1C0E0F0303038381C1C1F098
:1009200038303FFC1C1C0E0F0303038381C1C1F050
:1009300038303FFC1C1C0E0F030303838181C1F080
:1009400030303FF8001C0E0F030303838001C1F019
:1009500000303FF8000C0E0F0303038380FFC1F04B
:100960001FF03FF8000C0E0F0303038381FFC1F05B
:100970003FF03FF8000C0E0F0303038381FFC1F02B
:100980003FF03FF8000C0E01030303838001C030E9
:1009900000303FF81C0C0E01030303838001C030BC
:1009A00000303FF03C0C0E01030303838001C03094
:1009B00000303FF03C040F0103030383C001E03823
:1009C00000303FF03E040F8103030383E007F03C57
:1009D00000F03FFFFFFFFFFFFFFFFFFFFFFFFFFFF5
:1009E000FFFFFFFFFFFFFFFFFFFFFFFFFFFFFFFF17
:1009F000FFFFFFFFFFFFFFFFFFFFFFFFFFFFFFFF07
:100A0000FFFFFF00000000000000000000000021C8
:100A1000C0212021202126212939C125072509258A
:100A2000092507000000000000338E37DF3CE33863
:100A3000E330C330C330C330C330C330C330C330FE
:100A4000C330C30000000000000000783CCC66CC3E
:100A5000C3CCC3CCC078C000C000C000C300C3007A
:100A600066003C00000183018300C600C600C6008A
:100A70006CEC6CFE6CD638D638D63800000000001E
:100A800000000000000000000000000100038007DB
:100A9000C00FE01FF03FF87FFCFFFE0000000000E9
:100AA0000000000000000000000000FFFE7FFC3F8F
:100AB000F81FF00FE007C0038001000000000000F5
:100AC00000000000000000003E5B4F5B3E3E6B4FAD
:100AD0006B3E1C3E7C3E1C183C7E3C181C577D57D0
:100AE0001C1C5E7F5E1C00183C1800FFE7C3E7FF7C
:100AF0000018241800FFE7DBE7FF30483A060E260F
:100B000029792926407F050507407F05253F5A3C66
:100B1000E73C5A7F3E1C1C08081C1C3E7F14227FA9
:100B200022145F5F005F5F06097F017F0066899581
:100B30006A606060606094A2FFA29408047E04086A
:100B400010207E201008082A1C08081C2A08081EED
:100B5000101010100C1E0C1E0C30383E3830060ED3
:100B60003E0E06000000000000005F0000000700CD
:100B70000700147F147F14242A7F2A122313086489
:100B80006236495620500008070300001C2241002D
:100B90000041221C002A1C7F1C2A08083E0808006D
:100BA000807030000808080808000060600020100D
:100BB0000804023E5149453E00427F4000724949C7
:100BC00049462141494D331814127F1027454545A8
:100BD000393C4A49493141211109073649494936C9
:100BE000464949291E00001400000040340000005E
:100BF0000814224114141414140041221408020190
:100C00005909063E415D594E7C1211127C7F4949BB
:100C100049363E414141227F4141413E7F49494958
:100C2000417F090909013E414151737F0808087F4E
:100C300000417F41002040413F017F081422417F55
:100C4000404040407F021C027F7F0408107F3E41ED
:100C500041413E7F090909063E4151215E7F091944
:100C60002946264949493203017F01033F4040405C
:100C70003F1F2040201F3F4038403F63140814634B
:100C800003047804036159494D43007F4141410207
:100C900004081020004141417F0402010204404049
:100CA000404040000307080020545478407F284407
:100CB00044383844444428384444287F38545454F1
:100CC0001800087E090218A4A49C787F0804047800
:100CD00000447D40002040403D007F10284400003B
:100CE000417F40007C047804787C08040478384410
:100CF000444438FC1824241818242418FC7C0804C4
:100D00000408485454542404043F44243C404020E4
:100D10007C1C2040201C3C4030403C44281028448F
:100D20004C9090907C4464544C4400083641000040
:100D300000770000004136080002010204023C2650
:100D400023263C1EA1A161123A4040207A38545417
:100D5000555921555579412154547841215554789C
:100D60004020545579400C1E527212395555555930
:100D7000395454545939555454580000457C410055
:100D800002457D420001457C40F0292429F0F028ED
:100D90002528F07C545545002054547C547C0A0985
:100DA0007F4932494949323248484832324A4848F4
:100DB000303A4141217A3A42402078009DA0A07DFE
:100DC00039444444393D4040403D3C24FF242448BC
:100DD0007E4943662B2FFC2F2BFF0929F620C08864
:100DE0007E090320545479410000447D4130484835
:100DF0004A32384040227A007A0A0A727D0D19314F
:100E00007D2629292F28262929292630484D4020AA
:100E1000380808080808080808382F10C8ACBA2F86
:100E2000102834FA00007B000008142A142222142F
:100E30002A1408AA005500AAAA55AA55AA0000001B
:100E4000FF00101010FF00141414FF001010FF001A
:100E5000FF1010F010F0141414FC001414F700FF2D
:100E60000000FF00FF1414F404FC141417101F10EA
:100E7000101F101F1414141F00101010F000000099
:100E8000001F101010101F10101010F010000000A4
:100E9000FF101010101010101010FF10000000FFB5
:100EA000140000FF00FF00001F10170000FC04F4F6
:100EB00014141710171414F404F40000FF00F714AE
:100EC000141414141414F700F71414141714101035
:100ED0001F101F141414F4141010F010F000001F51
:100EE000101F0000001F14000000FC140000F01090
:100EF000F01010FF10FF141414FF141010101F0036
:100F0000000000F010FFFFFFFFFFF0F0F0F0F0FF37
:100F1000FFFF0000000000FFFF0F0F0F0F0F38440E
:100F20004438447C2A2A3E147E02020606027E02CF
:100F30007E0263554941633844443C04407E201E90
:100F40002006027E020299A5E7A5991C2A492A1CBF
:100F50004C7201724C304A4D4D303048784830BCAC
:100F6000625A463D3E494949007E0101017E2A2AD6
:100F70002A2A2A44445F444440514A444040444A57
:100F800051400000FF0103E080FF000008086B6B88
:100F9000083612362436060F090F0600001818000E
:100FA00000001010003040FF0101001F01011E0071
:100FB000191D1712003C3C3C3C00000000000000E2
:100FC0000000240027002A0000000000250028005F
:100FD0002B00000000002300260029000404040464
:100FE00004040404020202020202030303030303D3
:100FF00001020408102040800102040810200102B0
:10100000040810200000000700020100000304068D
:10101000000000000000000000407A10F35A00A019
:10102000724E18090010A5D4E80000E876481700B1
:1010300000E40B54020000CA9A3B000000E1F505F1
:10104000000080969800000040420F000000A0863B
:1010500001000000102700000000E803000000006D
:101060006400000000000A00000000000100000011
:1010700000002C76D888DC674F0823DFC1DFAE592B
:10108000E1B1B796E5E3E453C63AE651997696E8BE
:10109000E6C28426EB898C9B62ED407C6FFCEFBC42
:1010A0009C9F40F2BAA56FA5F490055A2AF75C936D
:1010B0006B6CF9676DC11BFCE0E40D47FEF520E6A3
:1010C000B500D0ED902E0300943577050080841E86
:1010D000080000204E0A000000C80C333333330FE1
:1010E000986E12831141EF8D2114893BE65516CF7E
:1010F000FEE6DB18D1844B381BF77C1D901DA4BB8A
:10110000E424203284725E228100C9F124ECA1E53E
:101110003D27E50B6C17DE0B11241FBECFEFD8E087
:10112000DEBFCDBF15E0A0E0B1E0EEE5FFE502C017
:1011300005900D92A23EB107D9F717E0A2EEB5E0F7
:1011400001C01D92A73CB107E1F711E1C6E1D1E171
:1011500004C02297FE010E94672FC231D107C9F750
:101160000E942C260C94A22F0C940000EF92FF9268
:101170000F931F93F22FF02E47FD02C0E4E001C051
:10118000E4E1242F332727FD309537FF03C0309546
:1011900021953F4F4F2D512F0F2FEE2E0E94E70824
:1011A0008F2D912F1F910F91FF90EF900895FB01CC
:1011B000DC0102C001900D9241505040D8F70895D3
:1011C000FB01DC0101900D920020E1F70895A9E0F8
:1011D000B0E0EDEEF8E00C946F2F6A01122FA02E14
:1011E000BE2C2BE3201718F42CE3922E02C0902E75
:1011F0009394AE014F5F5F4F27E0092D0E94490A8B
:10120000BC018981E82EFF24C70189709070019785
:1012100011F4ADE209C0B1FE02C0ABE205C0B0FC02
:1012200002C0A0E001C0A0E2E3FE3BC0AA2311F48B
:1012300023E001C024E0211710F020E002C0121BBF
:10124000212FEB2CB4FE02C0322F0AC0F601322F40
:1012500080E202C0819331503323E1F7C20ED11CEA
:10126000AA2319F0F601A1936F01F6013196E2FE6F
:1012700005C09EE4D6019C9381E404C09EE6D6019D
:101280009C9381E611968C9391833296DF01832F94
:1012900090E202C09D9381508823E1F7E30FF11D96
:1012A00040C0E2FE42C0AA2311F423E001C024E0C2
:1012B000211710F020E002C0121B212FEB2CB4FEEE
:1012C00002C0922F0AC0F601922F80E202C08193E1
:1012D00091509923E1F7C20ED11CAA2319F0F6010F
:1012E000A1936F01F6013196E2FE08C089E4D601B0
:1012F0008C938EE411968C9386E407C089E6D60120
:101300008C938EE611968C9386E681833296DF016C
:10131000892F20E202C02D9381508823E1F7E90F45
:10132000F11D10822EEF3FEFAFC0161617061CF00E
:1013300041E050E003C0AB014F5F5F4FAA2019F4BA
:1013400080E090E003C08A2D90E0019620E030E03C
:10135000AA2311F021E030E0240F351F280F391F98
:10136000812F90E02817390714F020E002C0121BEB
:10137000212F4B2D50E0CA0180719070B4FC0DC03C
:10138000B3FC0BC0F601322F40E202C04193315052
:101390003323E1F7C20ED11C01C0322FAA2319F06A
:1013A000F601A1936F01892B11F0132F0AC0F601EA
:1013B000132F80E302C0819311501123E1F7C30E74
:1013C000D11C092D060FBA8090E1892E912C8E2018
:1013D0009F20E4FE04C0F1E3BF1609F4015010168B
:1013E00014F001E003C0093008F008E09B0177FF2A
:1013F00002C020E030E0CB010196821B930BFE017E
:101400003196E80FF91F8EE2F82E3B01601A710841
:101410008A2D90E044275527481B590B8FEF2F3F0B
:10142000380719F4D601FD926D01621773072CF08D
:101430006216730614F4808101C080E321503040AD
:1014400031962417350724F0D6018D936D01E6CF30
:101450002617370749F4B5E3BB1528F0BB1621F46E
:101460008114910409F481E3F6018193D601812F5F
:1014700090E202C09C93815011968823D9F7E10F26
:10148000F11D108220E030E0C9012996EEE00C94B5
:101490008B2F283008F027E03327DA01990F311D10
:1014A00087FD916000966105710539F432602E5F09
:1014B0003D9330E32A95E1F708959F3F30F080385F
:1014C0007105610509F03C5F3C5F3D93913008F088
:1014D0008068911DDF93CF931F930F93FF92EF923C
:1014E000192F987F9695E92F96959695E90FFF27E6
:1014F000EE58FF4E99273327EE24FF24A701E7017A
:1015000005900894079428F4360FE71EF81E491F2B
:10151000511D660F771F881F991F0694A1F705902C
:10152000079428F4E70EF81E491F561FC11D770FB8
:10153000881F991F661F0694A1F70590079428F449
:10154000F80E491F561FC71FD11D880F991F661F10
:10155000771F0694A1F70590079420F4490F561FB2
:10156000C71FD81F990F661F771F881F0694A9F7FA
:1015700084911095177041F0D695C795579547956A
:10158000F794E7941A95C1F7E8E1F0E168941590B3
:10159000159135916591959105907FE27395E118CC
:1015A000F10A430B560BC90BD009C0F7E10CF11E31
:1015B000431F561FC91FD01D7EF4703311F48A9546
:1015C000E6CFE894015030F0080F0AF40027021724
:1015D00008F4202F2395022F7A3328F079E37D93A6
:1015E0002A95E9F710C07D932A9589F60694979578
:1015F0006795379517951794E118F10A430B560B29
:10160000C90BD00998F023957E9173957A3308F031
:1016100070E37C932013B8F77E9170617D9330F076
:10162000839571E37D9370E32A95E1F71124EF90A0
:10163000FF900F911F91CF91DF91992787FD909592
:101640000895CF93DF93C9E9D6E060E070E080E0D1
:1016500090E029913991499159910E945D2B26E0A2
:10166000C93ED207B1F720E030E040EA51E40E94E1
:10167000C52BDF91CF91089580916C06882379F571
:1016800080916F0690917006009761F0813091050E
:1016900021F0029721F58FEF9FEF90936E068093D4
:1016A0006D061DC08091F0069091F1060196909311
:1016B000F1068093F006079734F081E090E0909374
:1016C000F1068093F00680E090E0A0E0B0E0809327
:1016D000910690939206A0939306B093940610926D
:1016E0006C06089581E080936C0610926E0610924D
:1016F0006D062091F0063091F1062130310549F553
:1017000080916F0690917006019690937006809379
:101710006F060397F4F01092700610926F0608950A
:101720008091810690918206A0918306B0918406F3
:101730008093850190938601A0938701B0938801DF
:1017400080938D0690938E06A0938F06B09390069B
:101750000895225030402230310510F30895EF9261
:101760000F9381309105F1F46F5F7F4F21F582EE89
:1017700095E069E04AE02BE00DE07CE0E72E0E9476
:10178000DC228DE096E00E94E91288E596E064E0B4
:1017900040E00E941F2482EF96E060E071E00E942A
:1017A000262909C0892B39F46F5F7F4F21F482EF1E
:1017B00096E00E9440290F91EF90089580E090E01C
:1017C0006FEF7FEF0E94AF0B089581E090E06FEF25
:1017D0007FEF0E94AF0B08958EE480937C0062E05F
:1017E00070E080E090E00E94B22480917A008064F2
:1017F00080937A0080917A0086FDFCCF80917800FA
:1018000090E0A0E0B0E060917900362F20E044271E
:1018100037FD4095542F282B392B4A2B5B2B60E04A
:1018200070E381E190E00E94362FCA01B90108956A
:10183000CF92DF92EF92FF920F931F9361312EE0D0
:10184000720720E0820720E092074CF082EE95E0DC
:1018500068E670E041E050E02AEE30E038C06934DC
:101860002DE0720720E0820720E092074CF082EE24
:1018700095E068E670E041E050E02FEF30E027C0EF
:1018800061382CE0720720E0820720E092074CF0DC
:1018900082EE95E068E670E041E050E024E131E05E
:1018A00016C0695B7B40804090404CF082EE95E032
:1018B00068E670E041E050E029E231E008C082EEE5
:1018C00095E068E670E041E050E02EE331E004E1AD
:1018D00010E0F7E0EF2EF12CE1E0CE2ED12C0E94AB
:1018E000501C1F910F91FF90EF90DF90CF900895C3
:1018F000EF92FF920F931F939C01FB018A01E41B5F
:10190000F50B82EE95E0B901AF019801A1E0EA2E56
:10191000F12C0E94001C1F910F91FF90EF900895F1
:101920002F923F924F925F926F927F928F929F92EF
:10193000AF92BF92CF92DF92EF92FF920F931F93DD
:10194000DF93CF93CDB7DEB72C970FB6F894DEBFF9
:101950000FBECDBF8F8398877A836983FA012901EF
:10196000C801FC82EB82DE82CD8268E070E00E94DA
:10197000012F6B877C872B853C85E29EC001E39E0F
:10198000900DF29E900D1124AC014E9FC0014F9F0F
:10199000900D5E9F900D1124480E591E66247724E9
:1019A00036C0F5018491740107E010E0282E33243D
:1019B000C101002E02C0959587950A94E2F780FF39
:1019C00009C082EE95E0B70149855A852D813E8197
:1019D0000E940023015010400894E11CF11CFFEF0D
:1019E0000F3F1F0729F70894C11CD11C28E030E0E5
:1019F000820E931E0894A11CB11C4B855C85C416F5
:101A0000D5067CF20894611C711C440E551E8B8116
:101A10009C816816790674F48F8198859C01490130
:101A20005201CC24DD24A981BA81A60DB71DBA8745
:101A3000A987E3CF2C960FB6F894DEBF0FBECDBFBB
:101A4000CF91DF911F910F91FF90EF90DF90CF909A
:101A5000BF90AF909F908F907F906F905F904F90CE
:101A60003F902F900895CF92DF92EF92FF920F93C5
:101A70001F9323E03AE000E110E0E0E1EE2EF12CCC
:101A8000B1E0CB2ED12C0E94900C1F910F91FF90B2
:101A9000EF90DF90CF900895CF92DF92EF92FF9278
:101AA0000F931F9323E531E008E110E0A8E2EA2E4E
:101AB000F12CF1E0CF2ED12C0E94900C1F910F91B0
:101AC000FF90EF90DF90CF9008956F927F928F926A
:101AD0009F92AF92BF92CF92DF92EF92FF920F93BD
:101AE0001F93DF93CF93CDB7DEB72F970FB6F89440
:101AF000DEBF0FBECDBF4C015B0169017A01380129
:101B0000CA01B90120E030E44CE156E40E94C12B47
:101B100088230CF083C0C701B60143E021E07E01B9
:101B20000894E11CF11C87010E94B608F70101909E
:101B30000020E9F73197EE19FF09E630F105D4F0FE
:101B40008401B5E0CB2ED12CCC0EDD1EF7014191E6
:101B50007F01552747FD509540535040C801B501BE
:101B60000E944C0D065E1F4FEC14FD0479F78CE6C5
:101B700090E050C08F0101501040E00EF11EF701BF
:101B80004081552747FD509540535040C4018A5A23
:101B90009F4FB5010E944C0DB501695D7F4F8EE4EA
:101BA00090E046E050E00E94780C01501040101682
:101BB000110674F4FE01E00FF11F4081552747FD27
:101BC000509540535040C401C496B5010E944C0D3D
:101BD0000150104010161106DCF4FE01E00FF11F59
:101BE0004081552747FD509540535040C4014A96C7
:101BF000B5010E944C0D0230110551F44981552761
:101C000047FD509540535040C401B5010E944C0D12
:101C100080E790E0B501A3010E94330D2F960FB627
:101C2000F894DEBF0FBECDBFCF91DF911F910F9112
:101C3000FF90EF90DF90CF90BF90AF909F908F90EC
:101C40007F906F9008958F929F92AF92BF92CF92A4
:101C5000DF92EF92FF920F931F934C015A016B0199
:101C6000890182EEE82E85E0F82EC7010E946E20E1
:101C70000E94EC0B0E94180CC70160E070E040E08D
:101C800050E00E94251EC701B4010E94982880E000
:101C900090E064E170E0A60195010E94650DC70126
:101CA0000E940C211F910F91FF90EF90DF90CF9039
:101CB000BF90AF909F908F900895CF92DF92EF9258
:101CC000FF920F931F93DF93CF93CDB7DEB7AA9701
:101CD0000FB6F894DEBF0FBECDBF88E596E00E9438
:101CE00099238DE096E00E949013882309F4BAC0EE
:101CF000682F772767FD7095872F972F0E94B22452
:101D00008DE096E069E776E00E940915882309F4E2
:101D1000A9C08DE096E060E00E946013882309F47A
:101D2000A1C0682F772767FD7095872F972F0E9496
:101D3000B2248DE096E06DE776E049E756E00E9438
:101D4000EB13882309F48EC020917D0630917E0626
:101D500040917F06509180068091E9069091EA06B5
:101D6000449739F41092EA061092E90681E08093D4
:101D7000EF068091E9069091EA06FC01EE0FFF1F45
:101D8000EE0FFF1FE756F94F2083318342835383C1
:101D900001969093EA068093E9060E94210B9B012D
:101DA000AC016093EB067093EC068093ED06909384
:101DB000EE068091EF06882309F454C0CA01B901E8
:101DC00020E030E048EC52E40E94142D6B017C01CD
:101DD00060917106709172068091730690917406FD
:101DE00020E030E048EC52E40E94142D8B019C016D
:101DF0008DE096E0B701A6010E94EA127B018C01FA
:101E00006093810670938206809383069093840684
:101E100020918D0630918E0640918F06509190064C
:101E20000E94102D181644F4E0928D06F0928E0652
:101E300000938F0610939006C801B7012091850189
:101E40003091860140918701509188010E94C12BF9
:101E5000882344F4E0928501F09286010093870183
:101E60001093880180916F0690917006892B09F07C
:101E70001DC26091850670918606809187069091BB
:101E8000880620E030E040E050E00E94C12B88232B
:101E9000B9F5E0908106F0908206009183061091DA
:101EA0008406C801B70120E030E040E050E00E9425
:101EB000102D88234CF0C801B70120E030E040E04D
:101EC0005FE30E945D2B08C0C801B70120E030E04D
:101ED00040E05FE30E945C2B0E942D2C0E94602C4E
:101EE0006093850670938606809387069093880694
:101EF0006093890670938A0680938B0690938C0674
:101F0000E0908506F090860600918706109188067D
:101F1000C801B7012091890630918A0640918B064D
:101F200050918C060E94C12B882331F140917D068F
:101F300050917E0660917F06709180068DE096E05C
:101F4000980187010E9409136093710670937206CD
:101F5000809373069093740680918506909186060F
:101F6000A0918706B09188068093890690938A068F
:101F7000A0938B06B0938C06E0907106F0907206E9
:101F80000091730610917406C801B701209175067F
:101F90003091760640917706509178060E94C12BC9
:101FA0008823F9F0E0927506F092760600937706A2
:101FB000109378066091890170918A0101E716E01B
:101FC0007B010894E11CF11CF80141918F0189EB20
:101FD00097E00E945024F6E005371F0711F0B70183
:101FE000EFCF8091F0069091F1068330910509F4CE
:101FF00082C0843091053CF48130910581F00297D4
:1020000009F005C242C08530910509F4E0C0853071
:1020100091050CF4A6C0069709F0F9C116C16091AC
:10202000910670919206809193069091940620916A
:1020300081063091820640918306509184060E9469
:10204000C12B882309F4E3C18E010F5F1F4FC80124
:1020500061E071E00E94262940918106509182063C
:102060006091830670918406C80121E030E00E94EF
:10207000230EC8010E94402980918106909182061A
:10208000A0918306B0918406D7C0609191067091AB
:102090009206809193069091940620918D0630913E
:1020A0008E0640918F06509190060E94C12B882386
:1020B00009F4ADC18E01085F1F4FC8016AE071E0ED
:1020C0000E94262940918D0650918E0660918F06C0
:1020D00070919006C80121E030E00E94230EC801F3
:1020E0000E94402980918D0690918E06A0918F06C6
:1020F000B0919006A1C06091910670919206809176
:10210000930690919406209185013091860140912B
:102110008701509188010E94C12B882309F477C15F
:102120008E01015F1F4FC80167E171E00E942629FF
:1021300040918501509186016091870170918801DD
:10214000C80121E030E00E94230EC8010E9440290E
:102150008091850190918601A0918701B0918801BD
:102160006BC0609191067091920680919306909158
:10217000940620917D0630917E0640917F06509115
:1021800080060E94C12B882309F441C18E010A5E9A
:102190001F4FC80164E271E00E94262940917D062C
:1021A00050917E0660917F0670918006C80120E004
:1021B00030E00E94230EC8010E94402980917D06D4
:1021C00090917E06A0917F06B091800635C0609107
:1021D00091067091920680919306909194062091B9
:1021E000790630917A0640917B0650917C060E94D8
:1021F000C12B882309F40BC18E01035E1F4FC80158
:102200006DE271E00E9426294091790650917A068C
:1022100060917B0670917C06C80122E030E00E944C
:10222000230EC8010E9440298091790690917A0678
:10223000A0917B06B0917C068093910690939206C4
:10224000A0939306B0939406E2C00E94EC0B6B013E
:102250007C018091950690919606A0919706B09189
:1022600098068C159D05AE05BF0509F4D0C08E01FA
:102270000C5D1F4FC80169E371E00E942629C70168
:10228000B6010E94602CAB01BC01C80123E030E024
:102290000E94230EC8010E944029C0929506D09248
:1022A0009606E0929706F0929806B1C082EE95E00D
:1022B0000E946E2082EE95E061E00E942B1E82EE6D
:1022C00095E060E070E040E050E00E94251E82EE64
:1022D00095E062E471E00E94522882EE95E060E0B1
:1022E00070E04FE050E00E94251E82EE95E06EE423
:1022F00071E00E94552740917106509172066091DD
:1023000073067091740682EE95E022E030E00E9440
:102310003C2882EE95E065E571E00E9452288091AC
:102320006F0690917006019741F484E690E068E2B0
:1023300070E044E050E00E94330D80916F06909170
:102340007006029741F484E690E068E270E045E0B0
:1023500050E00E94330D20916D0630916E062115DC
:102360003105A9F1B901882777FD8095982F0E9442
:10237000602C209185063091860640918706509109
:1023800088060E945D2B8B019C01C801D9018093B6
:10239000850690938606A0938706B09388061092D0
:1023A0006E0610926D0640917D0650917E066091FA
:1023B0007F06709180068DE096E00E94091360937D
:1023C000710670937206809373069093740682EE82
:1023D00095E060E070E04DE250E00E94251E82EE44
:1023E00095E06AE571E00E9455274091850650917D
:1023F0008606609187067091880682EE95E020E05F
:1024000030E00E943F2882EE95E00E940C2162E3BA
:1024100070E080E090E00E94B224AA960FB6F89493
:10242000DEBF0FBECDBFCF91DF911F910F91FF9007
:10243000EF90DF90CF900895CF92DF92EF92FF92CE
:102440000F931F93CF93DF9388E596E06CE37BE0D7
:102450000E948C2388E596E062E77BE040ED57E040
:102460000E94902382EE95E062E04CE30E94C1213D
:102470006091890170918A01C1E7D6E08B010F5FFD
:102480001F4F89EB97E00E9449248993B80186E0A9
:10249000C537D80799F7209171063091720640919F
:1024A000730650917406CA01B9010E94C32D882396
:1024B000F9F080E090E5ADE7B4E480937106909385
:1024C0007206A0937306B0937406609189017091AF
:1024D0008A0124978B010F5F1F4F499189EB97E089
:1024E0000E94502486E0C537D80711F0B801F2CF1A
:1024F0008091710690917206A0917306B091740656
:102500008093750690937606A0937706B09378062D
:1025100082EE95E00E946E2082EE95E060E070E031
:1025200040E050E023E036E000E810E0F0E4EF2E79
:10253000F12CE1E0CE2ED12C0E94501C82EE95E0D1
:102540000E940C2168EE73E080E090E00E94B224CB
:1025500082EE95E00E946E2082EE95E061E00E949E
:102560002B1E82EE95E061E070E00E94311E82EE4B
:1025700095E060E070E040E050E00E94251E8DE0B4
:1025800096E00E94CC15882389F482EE95E062E6FD
:1025900071E00E94522882EE95E06EE671E00E94A2
:1025A000522882EE95E00E940C21FFCF88E596E04C
:1025B0000E94992381E090E09093F1068093F006C9
:1025C000DF91CF911F910F91FF90EF90DF90CF900F
:1025D000089508950F931F93CB01BA01A9019801A3
:1025E0000E94C52B25E534ED42E45EE30E94772D81
:1025F0009B01AC0160E070E080E89FE30E945C2BEF
:1026000020E03AE24DE257E40E94142D1F910F9111
:102610000895CF92DF92EF92FF920F931F936A017A
:102620007B01C901B80120E03AE24DE257EC0E947B
:10263000C52B20E030E040E85FE30E945D2B26EFF1
:1026400038E248EA50E40E94772D9B01AC01C701B3
:10265000B6010E94C52B1F910F91FF90EF90DF9064
:10266000CF900895CF92DF92EF92FF920F931F9336
:102670007C016B01042F8FE397E067E770E00E9415
:102680003217112707FD10958FE397E0B601A801D7
:102690000E9483178FE397E00E94F7172AE430E047
:1026A000E20EF31EF701808390E0882309F491E0A5
:1026B000892F1F910F91FF90EF90DF90CF90089599
:1026C0001F93DF93CF9300D0CDB7DEB79C0161306D
:1026D00039F062308CF0623039F0633069F408C050
:1026E00084E78A8318E00BC084EB8A831EE007C06E
:1026F00084EF8A831AE103C084E38A8315E084EFC0
:102700008983C901BE016F5F7F4F42E00E9432138F
:102710008111812F0F900F90CF91DF911F9108951C
:10272000DF93CF9300D0CDB7DEB724EF29832EE21D
:102730002A83BE016F5F7F4F42E00E9432138111F6
:1027400085E00F900F90CF91DF910895FF920F9346
:102750001F93CF93DF938C01EB01F42E8FE397E06F
:1027600067E770E00E9432178FE397E068810E946C
:10277000B4178FE397E00E94F717065B1F4FF8012D
:102780008083882311F080E020C00F2D112707FDE2
:1027900010958FE397E067E770E0A8010E940818A2
:1027A0008FE397E00E943C1780179107C9F71C2F11
:1027B000CE01EC0105C08FE397E00E944517899395
:1027C0009E01211B2F15BCF381E0DF91CF911F915A
:1027D0000F91FF9008952F923F924F925F926F92C8
:1027E0007F928F929F92AF92BF92CF92DF92EF92A1
:1027F000FF920F931F93DF93CF93CDB7DEB7289748
:102800000FB6F894DEBF0FBECDBF9E838D83788751
:102810006F838A0186EF89838D819E81BE016F5F00
:102820007F4F43E00E94A6138C83882309F4D7C00E
:10283000F801608171818281938120E030E048EC71
:1028400051E40E945C2B3B014C01A40193010E94C6
:10285000142D7B018C01698170E0882777FD8095BC
:10286000982F0E94602C20E030E040E853E40E9462
:10287000142D5B016C016A8170E0882777FD8095DB
:10288000982F0E94602C9B01AC01C601B5010E94EB
:102890005D2B5B016C016B8170E0882777FD809573
:1028A000982F0E94602C20E030E040E85BE30E941B
:1028B000142D9B01AC01C601B5010E945D2B1B01CB
:1028C0002C01C801B701ED81FE8126A537A540A9DD
:1028D00051A90E94142D5B016C01C401B301ED816B
:1028E000FE8122A533A544A555A50E94142D9B0168
:1028F000AC01C601B5010E945D2BED81FE8126A1D0
:1029000037A140A551A50E945D2B9B01AC01C201DE
:10291000B1010E945C2B5B016C01C801B701ED8124
:10292000FE8122AD33AD44AD55AD0E94142D7B0127
:102930008C01C401B301ED81FE8126A937A940AD08
:1029400051AD0E94142D9B01AC01C801B7010E943A
:102950005D2BED81FE8122A933A944A955A90E94CE
:102960005D2B9B01AC01C601B5010E94C52B7B010B
:102970008C01A80197010E94142D9B01AC01CA0192
:102980002D813E812A5B3F4F3E832D83F9012081BB
:102990003181428153810E94142D5B016C01C80179
:1029A000B701ED81FE815291429132912291FE83D5
:1029B000ED830E94142D9B01AC01C601B5010E945C
:1029C0005D2BED81FE8152914291329122910E94C4
:1029D0005D2BEF81F88560837183828393838C8183
:1029E00028960FB6F894DEBF0FBECDBFCF91DF9112
:1029F0001F910F91FF90EF90DF90CF90BF90AF901D
:102A00009F908F907F906F905F904F903F902F900E
:102A100008959F92AF92BF92CF92DF92EF92FF9272
:102A20000F931F93DF93CF9300D0CDB7DEB76C0128
:102A30005B0186EF8983C601BE016F5F7F4F42E075
:102A40000E94A613982E882309F449C0698170E07A
:102A5000882777FD8095982F0E94602C20E030E039
:102A600040E853E40E94142D7B018C016A8170E0E0
:102A7000882777FD8095982F0E94602C9B01AC01E0
:102A8000C801B7010E945D2BF601228D338D448D64
:102A9000558D0E945C2BF60126893789408D518D1A
:102AA0000E94142D7B018C01F60122A133A144A1C7
:102AB00055A10E945D2B9B01AC01F601668D778DBF
:102AC00080A191A10E94C52B9B01AC01C801B70157
:102AD0000E945D2BF5016083718382839383892D2E
:102AE0000F900F90CF91DF911F910F91FF90EF907A
:102AF000DF90CF90BF90AF909F9008950F931F935A
:102B0000DF93CF9300D0CDB7DEB78A016983BE01D2
:102B10006F5F7F4F42E00E94A613882359F099818E
:102B200080E02A8130E0822B932BF801918380830F
:102B300081E004C0F8011182108280E00F900F90B4
:102B4000CF91DF911F910F9108950F931F93DF9302
:102B5000CF9300D0CDB7DEB78A016983BE016F5F26
:102B60007F4F42E00E94A613882359F0998180E0AC
:102B70002A8130E0822B932BF8019183808381E0BE
:102B800004C0F8011182108280E00F900F90CF9165
:102B9000DF911F910F9108956F927F928F929F9274
:102BA000AF92BF92CF92DF92EF92FF920F931F935B
:102BB000CF93DF93EC018FE397E00E940C18CE01D6
:102BC0006AEAAE010E94A515882309F43BC1AE0153
:102BD0004E5F5F4FCE016CEA0E94A515882309F471
:102BE00031C1AE014C5F5F4FCE016EEA0E94A51568
:102BF000882309F427C1AE01405F5F4FCE0160EB2F
:102C00000E947E15882309F41DC1AE014E5E5F4F00
:102C1000CE0162EB0E947E15882309F413C1AE0138
:102C20004C5E5F4FCE0164EB0E947E15882309F451
:102C300009C1AE014A5F5F4FCE0166EB0E94A51548
:102C4000882309F4FFC0AE01485F5F4FCE0168EBF7
:102C50000E94A515882309F4F5C0AE01465F5F4FB9
:102C6000CE016AEB0E94A515882309F4EBC0AE01E2
:102C7000445F5F4FCE016CEB0E94A515882309F4D9
:102C8000E1C0AE01425F5F4FCE016EEB0E94A51521
:102C9000882309F4D7C06C817D81882777FD8095D2
:102CA000982F0E94602C20E030E040EA5BE30E9415
:102CB000142D3B014C016889798980E090E00E94E5
:102CC0005E2C2FE632E143E053E30E94142D7B019A
:102CD0008C016E817F81882777FD8095982F0E94D7
:102CE000602C20E030E048EC57E30E94142D5B019B
:102CF0006C016A897B8980E090E00E945E2C2DEC5B
:102D00003CEC4CE454E30E94142D6E8B7F8B888F37
:102D1000998F6C897D8980E090E00E945E2C6A8F9B
:102D20007B8F8C8F9D8F6C857D85882777FD809527
:102D3000982F0E94602C2AE037ED43EA5DE30E9461
:102D4000142D6E8F7F8F88A399A36E857F8588272A
:102D500077FD8095982F0E94602C20E030E040E2C3
:102D600053E40E94C52B6AA37BA38CA39DA3688117
:102D70007981882777FD8095982F0E94602C6EA31B
:102D80007FA388A799A76A817B81882777FD809593
:102D9000982F0E94602C20E030E040EA5CE30E9423
:102DA000142D6AA77BA78CA79DA76885798588279E
:102DB00077FD8095982F0E94602C20E030E048E459
:102DC0005AE30E94142D6EA77FA788AB99ABC80168
:102DD000B70120E030E040E057E40E94142D6AABD8
:102DE0007BAB8CAB9DABC801B701A40193010E94E2
:102DF000142D6EAB7FAB88AF99AFC801B701A601A8
:102E000095010E94142D6AAF7BAF8CAF9DAFEE96FB
:102E10008CEE91E5A7E1B0E489939993A993B993D6
:102E200080E394E3AEE7BFE389939993A993B993C1
:102E300080E097E5A4E9B6E388839983AA83BB83FE
:102E400081E001C080E0DF91CF911F910F91FF9051
:102E5000EF90DF90CF90BF90AF909F908F907F903A
:102E60006F90089581E080933E0760931B07109256
:102E70003C0710923D07089520911A0730E0809199
:102E80001907281B3109C90108954091190780913C
:102E90001A07481718F02FEF3FEF0AC0E42FF0E0B1
:102EA000E750F94F8081282F30E04F5F409319079A
:102EB000C9010895E091190780911A07E81718F0E1
:102EC000EFEFFFEF06C0F0E0E750F94F8081E82F09
:102ED000F0E0CF0108950895109242071092410743
:102EE00088EE93E0A0E0B0E080934307909344071E
:102EF000A0934507B093460785EA95E09093400775
:102F000080933F070895CF92DF92EF92FF920F9345
:102F10001F93CF93DF937C016B018A0180913E0761
:102F20008823A1F0C0E0D0E00DC0D701ED91FC9165
:102F3000D601AC0FBD1F0190F081E02DC7016C914F
:102F400009952196C017D10780F304C0CB01642FE7
:102F50000E94B518C801DF91CF911F910F91FF908A
:102F6000EF90DF90CF900895DF93CF930F92CDB77E
:102F7000DEB7FC01698380913E078823C9F0809108
:102F80003D07803238F081E090E09383828320E037
:102F900030E015C080913C07E82FF0E0E45EF84F88
:102FA000998190838F5F80933C0780933D0705C094
:102FB000CE01019661E00E94B51821E030E0C90120
:102FC0000F90CF91DF9108950F93062F80911B07EB
:102FD0006CE177E040913D0721E00E94601810927B
:102FE0003C0710923D0710923E070F91089561E053
:102FF0000E94E4170895413208F040E2862F69EFFD
:1030000076E00E9417181092190780931A07089506
:1030100021E00E94FB1708951092190710921A07D9
:1030200010923C0710923D070E94611A0895382FB4
:10303000413210F040E042C080914B078823E1F715
:1030400091E090934B0720934D078FEF8093B80743
:10305000109273074150409374074F5F90934C0751
:1030600080914C07330F832B80934C0780914E0740
:10307000813041F410924E0780914C078093BB0041
:1030800085EC01C085EE8093BC0080914B078130B8
:10309000E1F380917307841710F44091730720E0E7
:1030A00030E00AC0FB01E20FF31FD901AD5AB84F5F
:1030B0008C9180832F5F3F4F2417A0F3842F0895B6
:1030C0000F931F93582F122F413210F081E04AC006
:1030D00080914B078823E1F782E080934B070093B0
:1030E0004D078FEF8093B8071092730740937407D2
:1030F000A3E5B7E0FB0102C081918D938E2F861B63
:103100008417D0F310924C0780914C07550F852BF4
:1031100080934C0780914E07813041F410924E0706
:1031200080914C078093BB0085EC01C085EE8093B5
:10313000BC00112321F080914B078230E1F3809194
:10314000B8078F3F11F480E00DC08091B80780323E
:1031500011F482E007C08091B807803311F084E059
:1031600001C083E01F910F910895482F613210F044
:1031700081E0089580914B07843011F082E008953A
:1031800060939607A5E7B7E0842F9C01F90102C080
:1031900081918D938E2F841B8617D0F380E0089544
:1031A0001F920F920FB60F9211242F933F934F93BC
:1031B0005F936F937F938F939F93AF93BF93EF939F
:1031C000FF938091B90090E0887F907080369105E0
:1031D00009F4F2C081369105CCF58832910509F4E5
:1031E0007BC089329105B4F48031910509F46FC038
:1031F000813191053CF4009709F447C1089709F023
:103200004FC165C08831910509F466C0809709F007
:1032100047C182C08034910509F4A4C0813491056E
:1032200044F48033910509F482C0C89709F038C18D
:1032300089C08035910509F489C08835910509F464
:1032400096C08834910509F02BC1AEC0883991052C
:1032500009F413C189399105ECF48837910509F413
:10326000ABC0893791054CF48836910509F4A4C0A8
:103270008037910509F014C19FC08838910509F481
:10328000FCC08039910509F49DC08038910509F092
:1032900007C198C0803B910509F4C6C0813B9105E8
:1032A0004CF4803A910509F49FC0883A910509F0E1
:1032B000F7C0BAC0803C910509F4E3C0883C910591
:1032C00009F4DFC0883B910509F0EAC0C2C08091D3
:1032D0004C078093BB00CFC0909173078091740717
:1032E000981768F490917307E92FF0E0ED5AF84FC2
:1032F00080818093BB009F5F90937307BCC08091D7
:103300004D07882309F44BC085ED8093BC00809164
:10331000BC0084FDFCCFC2C080E28093B80785ED7D
:103320008093BC008091BC0084FDFCCFB7C080E3DB
:103330008093B80785ED8093BC008091BC0084FD2C
:10334000FCCFACC088E38093B8079BC08091730723
:103350009091BB00E82FF0E0ED5AF84F90838F5F1B
:1033600080937307909173078091740782C0809156
:1033700073079091BB00E82FF0E0ED5AF84F90836F
:103380008F5F8093730780914D07882341F085ED0F
:103390008093BC008091BC0084FDFCCF7FC081E0A5
:1033A00080934E0784EA6EC085ED8093BC008091C7
:1033B000BC0084FDFCCF72C083E080934B07109269
:1033C000B70759C08091B707803208F056C0809186
:1033D000B7079091BB00E82FF0E0E956F84F9083D3
:1033E0008F5F8093B70747C08091B707803230F472
:1033F000E091B707F0E0E956F84F108285ED809331
:10340000BC008091BC0084FDFCCF10924B07609102
:10341000B707E0915107F091520787E997E070E014
:1034200009951092B7072DC084E080934B07109246
:10343000950710929607E0914F07F0915007099574
:1034400080919607882329F481E080939607109253
:10345000750790919507E92FF0E0EB58F84F8081C0
:103460008093BB009F5F9093950790919507809103
:103470009607981710F485EC01C085E88093BC008E
:103480000FC085EC8093BC0009C01092B80785ED91
:103490008093BC008091BC0084FDFCCF10924B0750
:1034A000FF91EF91BF91AF919F918F917F916F911C
:1034B0005F914F913F912F910F900FBE0F901F90F2
:1034C000189510924B0781E080934D0710924E079C
:1034D00082E161E00E94852583E161E00E9485250B
:1034E000E9EBF0E080818E7F808380818D7F808317
:1034F00088E48093B80085E48093BC0008952CB5DF
:10350000382F33702C7F322B3CBD2DB590E0959534
:1035100087959595879581702E7F822B8DBD089517
:103520008AE061E00E9485258AE061E00E944625EC
:103530008CB580618CBD8CB580648CBD8DE061E004
:103540000E9446258BE061E00E9446250895FC011B
:103550001382128285EB95E0918380837583648367
:10356000578346837187608753874287158A1586FC
:1035700014861786168621E0248B8FEF9FEF938B9E
:10358000828B918B808B268B08952F923F924F9246
:103590005F926F927F928F929F92AF92BF92CF92E3
:1035A000DF92EF92FF920F931F93DF93CF9300D0A0
:1035B00000D0CDB7DEB73C017C836B836A01590133
:1035C000FA82E982222433249801241B350B37FF29
:1035D00003C0309521953F4FC5014B815C81841B11
:1035E000950B97FF03C0909581959F4F8217930786
:1035F0005CF481E0282E312CC601CB80DC809C83DA
:103600008B83C80185015C018B819C81A816B9065A
:1036100044F4C501AB80BC809C838B83C8018601C8
:103620006C012501AB81BC814A1A5B0A7801EC1858
:10363000FD08F7FE04C0F094E194F108F394C0167D
:10364000D10624F088248A94982C03C0B1E08B2EF4
:10365000912CC20162E070E00E94012F8B0125C015
:10366000D301ED91FC912114310441F00480F581E6
:10367000E02DC301B6014B815C8107C00480F58158
:10368000E02DC3016B817C81A60129813A810995D6
:103690000E191F0917FF04C0C80CD91C040D151DF5
:1036A000EB81FC813196FC83EB834B815C81A4161A
:1036B000B506B4F60F900F900F900F90CF91DF9159
:1036C0001F910F91FF90EF90DF90CF90BF90AF9040
:1036D0009F908F907F906F905F904F903F902F9032
:1036E00008954F925F926F927F928F929F92AF92C6
:1036F000BF92CF92DF92EF92FF920F931F936C01D4
:103700005B014A0139012801DC01ED91FC91028441
:10371000F385E02D87010995D601ED91FC91A40177
:1037200041505040440D551D0284F385E02DC601E3
:10373000B50193010995D601ED91FC910084F185C5
:10374000E02DC601B501A40192010995D601ED91C4
:10375000FC910894A108B108A60CB71C0084F1855F
:10376000E02DC601B501A401920109951F910F91A9
:10377000FF90EF90DF90CF90BF90AF909F908F9091
:103780007F906F905F904F900895CF92DF92EF926D
:10379000FF920F931F93DC016B017801ED91FC9177
:1037A0008A0101501040020F131F0680F781E02D9F
:1037B000960109951F910F91FF90EF90DF90CF90A8
:1037C0000895CF92DF92EF92FF920F931F93DC0147
:1037D0006A01C9017801ED91FC9111979B0121507B
:1037E0003040280F391F0680F781E02DCD0186017A
:1037F00009951F910F91FF90EF90DF90CF90089562
:103800006F927F928F929F92AF92BF92CF92DF92F0
:10381000EF92FF920F931F93CF93DF935C013A01D6
:1038200069014801EB01C60ED71E0DC0D501ED910F
:10383000FC910084F185E02DC501BE01A301940136
:10384000870109952196CC15DD0584F3DF91CF9191
:103850001F910F91FF90EF90DF90CF90BF90AF90AE
:103860009F908F907F906F900895EF92FF920F93AB
:103870001F93FC017B01A081B181208531850285E8
:1038800013851E960D90BC91A02D60E070E040E085
:1038900050E0FD0109951F910F91FF90EF90089561
:1038A0002F923F924F925F926F927F928F929F9250
:1038B000AF92BF92CF92DF92EF92FF920F931F933E
:1038C000DF93CF93CDB7DEB728970FB6F894DEBF5E
:1038D0000FBECDBF3C017A8369835C834B833E83FB
:1038E0002D83480117012601C801079668E070E0A2
:1038F0000E94012F8B01EE24FF24CC24DD243EC046
:10390000EF81F88573E0F595E7957A95E1F7EC0D91
:10391000FD1D4D815E81E40FF51FE4912E2F30E0F7
:103920008F81988587709070A0E8B0E002C0B5954F
:10393000A7958A95E2F72A233B23232B81F0D30115
:10394000ED91FC9169817A814F815885640F751FD3
:103950000480F581E02DC301A501920109958F81B5
:103960009885019698878F83AF81B885A815B9058A
:103970003CF20894E11CF11CC00ED11EE214F304C9
:103980003CF418861F82AB80BC80AE0CBF1CECCF11
:1039900028960FB6F894DEBF0FBECDBFCF91DF9152
:1039A0001F910F91FF90EF90DF90CF90BF90AF905D
:1039B0009F908F907F906F905F904F903F902F904F
:1039C00008952F923F924F925F926F927F928F92C3
:1039D0009F92AF92BF92CF92DF92EF92FF920F939E
:1039E0001F93DF93CF93CDB7DEB72F970FB6F89421
:1039F000DEBF0FBECDBF5C015E834D8318870F8392
:103A0000FA86E986CB86DC0118968D919C911997F0
:103A1000681779070CF0A4C01A968D919C911B979A
:103A2000481759070CF09CC0EC2DF0E0FF87EE879B
:103A3000CF01880F991F8E0F9F1F880F991F860F28
:103A4000971F181619060CF08BC0CF01F3E0880FF2
:103A5000991FFA95E1F7840F951F181619060CF0B7
:103A60007FC085E0289FA00111245A8349832B0140
:103A70001B011C825C81553011F480E005C0E98196
:103A8000FA81ED53F54F84912C863D866D807E80C2
:103A900043011B82C82EDD2480FF1CC0D501ED919F
:103AA000FC91BB85B13049F40480F581E02DC5015E
:103AB000B201A3012F81388522C00684F785E02D4D
:103AC000C5016C857D85A4012E853F858901EF8028
:103AD000F88423C0E985FA852F813885E217F3073A
:103AE000E9F0D501ED91FC91BB85B13051F4048032
:103AF000F581E02DC501B201A30129853A8509951B
:103B00000DC00684F785E02DC5016C857D85A40177
:103B10002E853F858901E984FA840995EB81EF5F61
:103B2000EB832E853F85820E931E0894611C711CC9
:103B3000E83021F0D594C7948C2DACCF3C813F5F09
:103B40003C834E855F85240E351E0894411C511C14
:103B500089819A8101969A838983363009F08ACFC8
:103B60002F960FB6F894DEBF0FBECDBFCF91DF9179
:103B70001F910F91FF90EF90DF90CF90BF90AF908B
:103B80009F908F907F906F905F904F903F902F907D
:103B90000895CF92EF92FF920F931F93CF93DF93ED
:103BA000EC01262F6A3061F42C8930E003E0220F0B
:103BB000331F0A95E1F78E859F85820F931F37C0CB
:103BC0006D30C9F16C857D854E855F8508891989C1
:103BD000EA88FB88CC880E94E11C2C8986E0289F1B
:103BE000B00111248C859D85680F791F7D876C87B6
:103BF0008E89882301F1422F50E08AEF9FEF9C01CC
:103C0000429FC001439F900D529F900D1124288523
:103C10003985820F931F861797076CF413E0440FC2
:103C2000551F1A95E1F78E859F85840F951F9F87F5
:103C30008E871D861C8681E090E0DF91CF911F91D9
:103C40000F91FF90EF90CF900895FC0175876487E6
:103C5000578746870895FC01662309F461E0648B69
:103C60000895FC01738B628B718B608B0895FC014E
:103C700085890895FC01808591850895FC018285E0
:103C8000938508950895EF92FF920F931F93CF931A
:103C9000DF93DC01EB017A01F90155968C91559780
:103CA000823071F0833001F1813041F514966D91CD
:103CB0007C91159761507040641B750B9E01FAC092
:103CC00016968D919C91179701979C01241B350B9B
:103CD000790114968D919C9115979C01261B370BA9
:103CE000E901CE1BDF0B0AC016962D913C91179768
:103CF000261B370B2E1B3F0BBA01DCC0F7FE8AC018
:103D0000DBC014968D919C911597681779070CF07C
:103D1000D3C037FF04C0E20FF31F20E030E0169657
:103D20004D915C911797CF01820F931F4817590748
:103D30001CF4FA01E21BF30B1E161F060CF0BCC0AC
:103D4000922F2E2F892F869586958695A82FB0E0E5
:103D5000B695BA2FAA27B795A795A557BE4FA60F18
:103D6000B71F977019F138E0391B432F50E0FA0163
:103D7000ED56FA4FE081231750F4421B51098FEFA3
:103D800090E002C0959587954A95E2F7E8234C911B
:103D90000130110511F44E2B02C0E0954E234C93D7
:103DA000231708F489C0231BA058BF4F2830F0F018
:103DB0000130110511F49FEF01C090E0FD01822F49
:103DC0009083E058FF4F88508830D0F7822F88507A
:103DD000282F277086958695869590E00196969572
:103DE000982F882797958795A80FB91F222309F444
:103DF00063C0E22FF0E0E770F070E557FA4F2081E2
:103E00004C910130110511F4422B02C02095422340
:103E10004C9352C016964D915C911797E416F50697
:103E20000CF04AC0D7FF04C0EC0FFD1FC0E0D0E08B
:103E30009F012C0F3D1F14968D919C911597821711
:103E400093071CF4FA01EC1BFD0B1E161F06A4F5CC
:103E5000C70168E070E00E94012FDB01B695BA2F20
:103E6000AA27B795A795A557BE4FAC0FBD1F37E042
:103E7000E322FF2481E090E002C0880F991FEA94BA
:103E8000E2F7982F0130110551F403C08C91892B72
:103E90008D9331978FEFEF3FF807C1F70DC09095E5
:103EA00003C08C9189238D9331972FEFEF3FF20759
:103EB000C1F702C077FF25CFDF91CF911F910F91FE
:103EC000FF90EF900895EF92FF920F931F93CF937F
:103ED000DF93EC017B01DA01F9018D89823059F021
:103EE0008330C9F08130F1F44C815D814A1B5B0B5A
:103EF000421B530BEAC08C819D8101979C01261BBC
:103F0000370B79018E819F819C01241B350BD901D0
:103F1000AE1BBF0B07C06E817F81615070406E1970
:103F20007F09D3C0F7FE4DC0D2C0AE81BF816A17F2
:103F30007B070CF0CCC057FF04C0E40FF51F40E036
:103F400050E09F01240F351F8C819D8182179307BC
:103F50001CF4FD01E41BF50B1E161F060CF0B7C088
:103F6000DB0193E0B595A7959A95E1F7B695BA2F41
:103F7000AA27B795A795A557BE4FA40FB51F677081
:103F8000707081E090E002C0880F991F6A95E2F797
:103F9000982F0130110551F403C08C91892B8D931A
:103FA00031973FEFEF3FF307C1F791C0909503C002
:103FB0008C9189238D9331978FEFEF3FF807C1F7ED
:103FC00086C08C819D81E816F9060CF080C0B7FF91
:103FD00004C0EA0FFB1FA0E0B0E02E813F81CF01BB
:103FE0008A0F9B1F281739071CF4F901EA1BFB0BEA
:103FF0001E161F060CF06BC09A2F2E2F8A2F869547
:1040000086958695A82FB0E0B695BA2FAA27B795C2
:10401000A795A557BE4FAE0DBF1D492F477011F193
:1040200038E0341B432F50E0FA01ED56FA4FE0819F
:10403000231750F4421B51098FEF90E002C0959571
:1040400087954A95E2F7E8234C910130110511F468
:104050004E2B02C0E0954E234C932317C0F1231B37
:10406000A058BF4F2830F0F00130110511F49FEF38
:1040700001C090E0FD01822F9083E058FF4F8850EF
:104080008830D0F7822F8850282F27708695869504
:10409000869590E001969695982F88279795879515
:1040A000A80FB91F222399F0E22FF0E0E770F0701B
:1040B000E557FA4F20814C910130110511F4422B44
:1040C00002C0209542234C9302C077FF2ECFDF9190
:1040D000CF911F910F91FF90EF90089580E094E0B1
:1040E000EBE8F1E0DF019C011D9221503040E1F747
:1040F00008951F93DC01162F59968C9159978F3F85
:1041000009F469C09396ED91FC91949780819996FA
:104110009C919997892B80839596ED91FC91969728
:1041200090819A968C919A97809589238083939613
:10413000ED91FC919497908199968C9199978095A7
:10414000892380835E968C915E97882331F06EBDC3
:104150000DB407FEFDCF8EB534C030E840E050E02E
:1041600070E09196ED91FC919297908198968C9148
:104170009897809589238083832F90E086239723C7
:104180005F96ED91FC91909797962C919797892B3C
:1041900021F08081822B808304C080812095282398
:1041A00020839196ED91FC919297808198969C91B5
:1041B0009897892B808336954F5F5F4F4830510524
:1041C00081F69396ED91FC919497808199969C91BC
:1041D000892B808317C057966C91772767FD709560
:1041E0008FE397E00E9432178FE397E060E00E9430
:1041F000B4178FE397E0612F0E94B4178FE397E025
:104200000E94F7171F910895662311F067EA01C015
:1042100066EA0E9479200895CF92DF92EF92FF9292
:104220000F931F93CF93DF93EC0161E20E947920FB
:10423000CE0160E00E947920CE016FE70E947920D4
:10424000CE0162E20E947920CE0160E00E947920D6
:10425000CE0167E00E947920898D8F3F09F454C018
:10426000EBA1FCA1808199A5892B8083EDA1FEA102
:1042700080819AA5892B8083EBA1FCA1908189A5DF
:10428000809589238083ABE8B1E09C918E8D882353
:1042900031F09EBD0DB407FEFDCF8EB529C030E8CC
:1042A00040E050E0692F70E0E9A1FAA1908188A573
:1042B000809589238083832F90E086239723EF8D39
:1042C000F8A12FA1892B21F08081822B808304C04B
:1042D0008081209528232083E9A1FAA1808198A5D7
:1042E000892B808336954F5F5F4F48305105E1F64B
:1042F000119685E0AB38B80741F6EBA1FCA18081AF
:1043000099A5892B808334C00091B8008CE08093FC
:10431000B800EE24FF246F89772767FD70958FE33F
:1043200097E00E9432178FE397E060E40E94B41791
:104330005BE8C52E51E0D52ECE0CDF1C10E08FE3DC
:1043400097E0F60161916F010E94B4171F5F103171
:10435000B1F780E190E0E80EF91E8FE397E00E944C
:10436000F71790E0E91694E0F906A9F60093B80073
:10437000DF91CF911F910F91FF90EF90DF90CF9041
:1043800008951F93CF93DF93EC01162F688F4F8B07
:10439000898D8F3F09F479C08B8D61E00E9446259D
:1043A0008D8D61E00E944625ED8D2E2F332727FD50
:1043B0003095F901E452F04FE491F0E0EE0FFF1F69
:1043C000E853F04F859194919CA38BA32051304FDB
:1043D000F901849189A7EB8D2E2F332727FD309586
:1043E000F901E452F04FE491F0E0EE0FFF1FE853C3
:1043F000F04F859194919EA38DA32051304FF901E8
:1044000084918AA78E8D882309F036C0898D61E05A
:104410000E9446258A8D61E00E944625EA8D2E2F56
:10442000332727FD3095F901E452F04FE491F0E095
:10443000EE0FFF1FE853F04F859194919AA389A343
:104440002051304FF901849188A7E98D2E2F332711
:1044500027FD3095F901E452F04FE491F0E0EE0FC2
:10446000FF1FE853F04F8591949198A38F8F2051AF
:10447000304FF90184918FA38E8D882351F00E94D3
:10448000901A84E00E947F1A04C08FE397E00E9494
:104490000C188C8D61E00E9446258C8D61E00E9495
:1044A000852561E070E080E090E00E94B2248C8D70
:1044B00060E00E9485256AE070E080E090E00E9464
:1044C000B2248C8D61E00E948525CE016EEA0E94A7
:1044D0007920CE0165ED0E947920CE0160E80E942E
:1044E0007920CE0168EA0E947920CE016FE30E9414
:1044F0007920CE0163ED0E947920CE0160E00E9418
:104500007920CE0160E40E947920CE016DE80E94FE
:104510007920113019F4CE0160E102C0CE0164E1CE
:104520000E947920CE0160E20E947920CE0160E0F5
:104530000E947920CE0161EA0E947920CE0168ECC8
:104540000E947920CE016AED0E947920CE0162E1BD
:104550000E947920CE0161E80E947920113019F47F
:10456000CE016FE902C0CE016FEC0E947920CE012E
:1045700069ED0E947920113019F4CE0162E202C087
:10458000CE0161EF0E947920CE016BED0E9479206F
:10459000CE0160E40E947920CE0164EA0E94792075
:1045A000CE0166EA0E947920CE016FEA0E9479204E
:1045B000DF91CF911F910895BF92CF92DF92EF923A
:1045C000FF920F931F936C01B62EF42E122F60E80A
:1045D00070E040E450E00E94A71A8DEC95E0F601EF
:1045E00091838083E58E048F138FF28EB18E168EA9
:1045F0001F910F91FF90EF90DF90CF90BF900895A3
:10460000CF92DF92EF92FF920F931F93CF93DF939E
:10461000EC017B018A01690177FD75C00E943A1E99
:10462000E816F9060CF06FC017FD6DC0CE010E94B0
:104630003E1E081719070CF066C058C08C819D817A
:104640000197801B910B87017C0116C08C819D8195
:1046500001979C012E193F0979018E819F81019755
:104660009C01201B310B890107C08E819F8101971E
:104670008E199F0978018C0198012770307081E0B4
:10468000C816D104C1F4C80168E070E00E94012F8F
:10469000FB01F695FE2FEE27F795E795EE0DFF1D32
:1046A000E557FE4F02C0CC0CDD1C2A95E2F7808155
:1046B0008C29808328C0C80168E070E00E94012F27
:1046C000FB01F695FE2FEE27F795E795EE0DFF1D02
:1046D000E557FE4F81E090E002C0880F991F2A95B0
:1046E000E2F780952081282320830DC0CE010E940F
:1046F000371E823009F4AACF833009F4B6CF813057
:1047000009F0BACF9BCFDF91CF911F910F91FF900E
:10471000EF90DF90CF900895FC0174876387089530
:10472000FC014115510511F050874783708B678755
:104730000895CF93DF93EC018A8180FF02C08260ED
:1047400001C08D7F8A8388810E94D925298130E02C
:104750004A818217930711F44E7F01C041604A835A
:104760004A81242F30E0C9019595879582279327A8
:1047700080FF2DC040FF13C089899A8901969A8BCA
:10478000898BE985FA85309711F0CE0109950E9451
:10479000A4246B837C838D839E831B8A14C0EB854A
:1047A000FC85309711F0CE010995ED85FE85309797
:1047B00011F0CE0109958FEF9FEFAFEFBFEF8B8325
:1047C0009C83AD83BE838A8184608A8329C04B7FAA
:1047D0004A838B819C81AD81BE818F5F9F4FAF4F9C
:1047E000BF4FF1F08B898823D9F40E94A4242B8138
:1047F0003C814D815E81621B730B840B950B2F8175
:10480000388540E050E0261737074807590740F43D
:10481000EF85F889309721F0CE01099581E08B8BE7
:104820008A818170DF91CF910895FC0181E08183BD
:10483000623021F4808161E00E94852508951F93F4
:10484000CF93DF93EC01862F142F688360E00E94E2
:104850004625112311F4198204C0CE01612F0E9454
:1048600015241A828981882319F481E08A8301C082
:104870001A821A8619861C861B861E861D86188A31
:104880001F861A8A198A81E08B8BDF91CF911F9145
:104890000895F999FECF72BD61BDF89A80B508956B
:1048A000F999FECF1FBA72BD61BD40BD0FB6F89435
:1048B000FA9AF99A0FBE08951F920F920FB60F92AF
:1048C00011242F933F938F939F93AF93BF93809126
:1048D000BE079091BF07A091C007B091C10730916A
:1048E000C2070196A11DB11D232F2D5F2D3720F08A
:1048F0002D570196A11DB11D2093C2078093BE07BD
:104900009093BF07A093C007B093C1078091BA07E7
:104910009091BB07A091BC07B091BD070196A11D66
:10492000B11D8093BA079093BB07A093BC07B093C7
:10493000BD07BF91AF919F918F913F912F910F90A4
:104940000FBE0F901F9018958FB7F8942091BE0757
:104950003091BF074091C0075091C1078FBFB90187
:10496000CA0108959B01AC017FB7F8948091BA0702
:104970009091BB07A091BC07B091BD0766B5A89BFD
:1049800005C06F3F19F00196A11DB11D7FBFBA2F61
:10499000A92F982F8827860F911DA11DB11D62E0B8
:1049A000880F991FAA1FBB1F6A95D1F7BC012DC0A4
:1049B000FFB7F8948091BA079091BB07A091BC070C
:1049C000B091BD07E6B5A89B05C0EF3F19F0019671
:1049D000A11DB11DFFBFBA2FA92F982F88278E0FB9
:1049E000911DA11DB11DE2E0880F991FAA1FBB1FD9
:1049F000EA95D1F7861B970B885E9340C8F2215049
:104A000030404040504068517C4F211531054105F0
:104A1000510571F60895789484B5826084BD84B59B
:104A2000816084BD85B5826085BD85B5816085BDA9
:104A3000EEE6F0E0808181608083E1E8F0E01082C2
:104A4000808182608083808181608083E0E8F0E003
:104A5000808181608083E1EBF0E0808184608083ED
:104A6000E0EBF0E0808181608083EAE7F0E0808124
:104A70008460808380818260808380818160808384
:104A80008081806880831092C1000895CF93DF9366
:104A9000482F50E0CA018051904FFC01349144529C
:104AA000504FFA018491882369F190E0880F991F93
:104AB000FC01E254F04FA591B491FC01E853F04F92
:104AC000C591D491662351F42FB7F8948C91932F0C
:104AD000909589238C93888189230BC0623061F47F
:104AE0002FB7F8948C91932F909589238C9388817C
:104AF000832B88832FBF06C09FB7F8948C91832B9C
:104B00008C939FBFDF91CF910895482F50E0CA0149
:104B10008C5F9F4EFC012491CA018051904FFC0193
:104B200094914452504FFA013491332309F440C018
:104B3000222351F1233071F0243028F42130A1F0E8
:104B4000223011F514C02630B1F02730C1F02430E6
:104B5000D9F404C0809180008F7703C080918000D9
:104B60008F7D8093800010C084B58F7702C084B59C
:104B70008F7D84BD09C08091B0008F7703C0809184
:104B8000B0008F7D8093B000E32FF0E0EE0FFF1FA9
:104B9000E853F04FA591B4912FB7F894662321F410
:104BA0008C919095892302C08C91892B8C932FBF77
:104BB0000895682F70E0CB018C5F9F4EFC0124911B
:104BC000CB018051904FFC0144916452704FFB0126
:104BD0009491992319F420E030E03CC0222351F154
:104BE000233071F0243028F42130A1F0223011F567
:104BF00014C02630B1F02730C1F02430D9F404C0FD
:104C0000809180008F7703C0809180008F7D80939A
:104C1000800010C084B58F7702C084B58F7D84BDBD
:104C200009C08091B0008F7703C08091B0008F7D64
:104C30008093B000892F90E0880F991F8E52904F7B
:104C4000FC01A591B4918C9120E030E0842311F017
:104C500021E030E0C9010895CF93DF930E940B2536
:104C60000E941C12C0E0D0E00E945D0E2097E1F38C
:104C70000E940000F9CF0895CF92DF92EF92FF9249
:104C80000F931F93CF93DF937C016B018A01C0E0E8
:104C9000D0E00FC0D6016D916D01D701ED91FC916F
:104CA0000190F081E02DC7010995C80FD91F01506F
:104CB00010400115110571F7CE01DF91CF911F91C1
:104CC0000F91FF90EF90DF90CF900895EF92FF92B9
:104CD0000F931F938C01DC01ED91FC910190F08109
:104CE000E02D6DE009957C01D801ED91FC910190DA
:104CF000F081E02DC8016AE009959C012E0D3F1D51
:104D0000C9011F910F91FF90EF900895CF93DF930A
:104D1000EC016115710519F420E030E00FC0DB01F2
:104D20000D900020E9F71197A61BB70BE881F981D8
:104D30000280F381E02DAD0109959C01C901DF914D
:104D4000CF9108954F925F927F928F929F92AF92F0
:104D5000BF92CF92DF92EF92FF920F931F93DF9358
:104D6000CF93CDB7DEB7A1970FB6F894DEBF0FBED5
:104D7000CDBF2C01742ECB01223008F42AE019A2F9
:104D800031E2C32ED12CCC0EDD1E822E9924AA2412
:104D9000BB24672D752FA50194010E94142F790162
:104DA0008A01C801B701A50194010E94E22E472D96
:104DB000461B0894C108D1084A3014F4405D01C074
:104DC000495CF6014083E114F1040105110521F06D
:104DD0007E2C5F2DC801DDCFC201B6010E94862660
:104DE000A1960FB6F894DEBF0FBECDBFCF91DF9175
:104DF0001F910F91FF90EF90DF90CF90BF90AF90F9
:104E00009F908F907F905F904F900895DC012115C7
:104E1000310541F4ED91FC910190F081E02D642F7A
:104E2000099508950E94A2260895CF92DF92EF92ED
:104E3000FF920F931F93CF93DF93EC016A017B01E5
:104E40002115310541F4E881F9810190F081E02DCF
:104E5000642F09951FC02A303105D1F477FF17C0A0
:104E6000E881F9810190F081E02D6DE209958C01D6
:104E700044275527BA014C195D096E097F09CE01F7
:104E80002AE00E94A2269801280F391F04C02AE0B8
:104E90000E94A2269C01C901DF91CF911F910F9121
:104EA000FF90EF90DF90CF9008950E94862608959E
:104EB0007F928F929F92AF92BF92CF92DF92EF92AA
:104EC000FF920F931F93CF93DF934C017A018B01D5
:104ED000722ECB01BA01A80197010E94C32D88232D
:104EE00021F0C40167E771E021C0C0E0D0E05701C4
:104EF0006801E894D7F8C601B5012FEF3FEF4FE7FF
:104F00005FE70E94C32D882351F4C601B5012FEF3E
:104F10003FEF4FE75FE70E94C12B181614F0C1E086
:104F2000D0E0219739F0C4016BE771E00E9486263A
:104F3000EC0193C0C801B7012FEF3FEF4FE75FE4EB
:104F40000E94102D181654F0C801B7012FEF3FEF43
:104F50004FE75FEC0E94C12B882324F4C4016FE764
:104F600071E0E4CFC801B70120E030E040E050E05C
:104F70000E94C12B87FD03C0C0E0D0E00EC0D40169
:104F8000ED91FC910190F081E02DC4016DE2099555
:104F9000EC0117FB109517F9109520E030E040E088
:104FA0005FE3DD240BC0CA01B90120E030E040E23C
:104FB00051E40E94C52B9B01AC01D394D71498F304
:104FC000C801B7010E945D2B5B016C010E94322C6D
:104FD0007B018C01C401B801A7012AE030E00E94E6
:104FE0000627C80FD91F772039F0C40163E871E0A4
:104FF0000E948626C80FD91FC801B7010E945E2CE7
:105000009B01AC01C601B5010E945C2B24C020E0CD
:1050100030E040E251E40E94142D7B018C010E949B
:105020002D2C5B016C01CC24B7FCC094DC2CC4019A
:10503000B601A5012AE030E00E941527C80FD91F4C
:10504000C601B5010E94602C9B01AC01C801B701EB
:105050000E945C2B7A947720D1F6CE01DF91CF911C
:105060001F910F91FF90EF90DF90CF90BF90AF9086
:105070009F908F907F9008950E9458270895EF92F7
:10508000FF920F931F937C010E9458278C01C70148
:105090000E946626080F191FC8011F910F91FF90EB
:1050A000EF900895EF92FF920F931F937C010E945F
:1050B00086268C01C7010E946626080F191FC801A9
:1050C0001F910F91FF90EF900895AF92BF92CF92F2
:1050D000DF92EF92FF920F931F93CF93DF935C01C8
:1050E0006B01EE24FF24C0E0D0E010C0D501ED91AB
:1050F000FC9100811181C601BE010E94AC28682F7D
:10510000C501F8010995E80EF91E2196F601848182
:105110009581C817D90750F3C701DF91CF911F912F
:105120000F91FF90EF90DF90CF90BF90AF900895D8
:10513000EF92FF920F931F937C010E9465288C01D0
:10514000C7010E9466269C01200F311FC9011F91D3
:105150000F91FF90EF900895FC018481958168176D
:10516000790748F40190F081E02D309721F0E60FA7
:10517000F71F8081089580E008950F931F93CF93C8
:10518000DF93EC018B016F5F7F4F888199810E94D3
:105190007B2A009711F480E005C0998388831B83E4
:1051A0000A8381E0DF91CF911F910F910895CF93F2
:1051B000DF93EC0188819981892B29F08A819B8179
:1051C0008617970760F4CE010E94BD28882341F01E
:1051D0008C819D81892B19F4E881F981108281E00D
:1051E000DF91CF910895CF93DF93EC01888199816E
:1051F000009711F00E94E329198218821D821C82F7
:105200001B821A82DF91CF910895EF92FF920F9344
:105210001F93CF93DF93EC017B018A01BA010E94B7
:10522000D728882321F4CE010E94F32807C01D83CC
:105230000C8388819981B7010E94E008CE01DF913B
:10524000CF911F910F91FF90EF900895CF93DF932F
:10525000EC01198218821B821A821D821C821E8216
:105260006115710551F0DB010D900020E9F71197F0
:10527000A61BB70BAD010E940529DF91CF910895C0
:10528000FC01808191810E94E32908950F931F936F
:10529000CF93DF93BC018230910510F462E070E09F
:1052A000E091C507F091C60740E050E0A0E0B0E013
:1052B00024C08081918186179707D0F086179707C1
:1052C00071F482819381109729F013969C938E93A9
:1052D00012972CC09093C6078093C50727C041152D
:1052E000510519F08417950718F48D01AC01EF01F1
:1052F000DF01828193819C01F9013097D1F641153C
:105300005105F9F0CA01861B970B8430910580F492
:105310008A819B810115110521F0F8019383828315
:1053200004C09093C6078093C507FE01329645C01E
:10533000FE01E80FF91F61937193029799838883A7
:105340003CC08091C3079091C407892B41F48091A0
:105350009D0590919E059093C4078093C30740914B
:105360009F055091A0054115510541F44DB75EB719
:1053700080919B0590919C05481B590B2091C30778
:105380003091C40724173507B0F4CA01821B930B70
:105390008617970780F0AB014E5F5F4F8417950724
:1053A00050F0420F531F5093C4074093C307F901B5
:1053B0006193719302C0E0E0F0E0CF01DF91CF9103
:1053C0001F910F910895CF93DF939C01009709F4EB
:1053D0008FC0EC0122971B821A826091C5077091E1
:1053E000C6076115710581F488819981820F931F29
:1053F0002091C3073091C4072817390739F5D09396
:10540000C407C093C30774C0DB0140E050E0AC1791
:10541000BD0708F1BB83AA83FE0121913191E20F00
:10542000F31FAE17BF0779F48D919C911197280F48
:10543000391F2E5F3F4F3983288312968D919C919F
:1054400013979B838A834115510571F4D093C60746
:10545000C093C5074DC012968D919C911397AD01D5
:10546000009711F0DC01D3CFDA011396DC93CE93D1
:105470001297FA0121913191E20FF31FCE17DF0746
:1054800069F488819981280F391F2E5F3F4FFA01F7
:10549000318320838A819B8193838283E0E0F0E0E3
:1054A000DB0112968D919C911397009719F0BC0126
:1054B000FD01F6CFAB014E5F5F4FDB018D919C91FB
:1054C000840F951F2091C3073091C407281739070F
:1054D00079F4309729F41092C6071092C50702C0DC
:1054E00013821282425050405093C4074093C30726
:1054F000DF91CF9108956F927F928F929F92AF929A
:10550000BF92CF92DF92EF92FF920F931F93CF93B0
:10551000DF938C01009729F4CB010E9446298C016E
:10552000BBC08EEFE82E8FEFF82EE00EF11E480183
:10553000860E971E8E149F0408F4ACC0D7014D91BF
:105540005C91119746175707B8F04530510508F49C
:10555000A3C0CA0104978617970708F49DC042505C
:105560005040461B570BF401419351936D937C932C
:10557000CF010E94E32990C05B01A41AB50A38014B
:10558000640E751EA091C507B091C607E0E0F0E07B
:10559000CC24DD2447C0A615B705A9F5CD91DC9133
:1055A0001197CE0102968A159B0568F1CE018A19E2
:1055B0009B09029612962C91129713963C9105978F
:1055C00058F0F40122833383CA19DB09D183C083E5
:1055D000D7016D937C9309C04E5F5F4F4C0F5D1FE9
:1055E000F70151834083C901FC01C114D10431F09A
:1055F000D6011396FC93EE9312974EC0F093C60714
:10560000E093C50749C08D919C911197E817F90760
:1056100008F4FC016D0112968C91129713969C91DF
:105620009C01D901109709F0B6CF8091C3079091E2
:10563000C40786159705E9F4E617F707D0F420911B
:105640009F053091A0052115310541F42DB73EB7D6
:1056500080919B0590919C05281B390B821693061F
:10566000C8F49092C4078092C307F70171836083E6
:1056700013C0CB010E944629EC01009759F0D701D5
:105680004D915C91B8010E94D708C8010E94E3299E
:105690008E0102C000E010E0C801DF91CF911F91A0
:1056A0000F91FF90EF90DF90CF90BF90AF909F90C1
:1056B0008F907F906F9008955058BB27AA270ED0E7
:1056C00075C166D130F06BD120F031F49F3F11F4F9
:1056D0001EF45BC10EF4E095E7FB51C1E92F77D1D1
:1056E00080F3BA17620773078407950718F071F4FF
:1056F0009EF58FC10EF4E0950B2EBA2FA02D0B0155
:10570000B90190010C01CA01A0011124FF27591B06
:1057100099F0593F50F4503E68F11A16F040A22F0C
:10572000232F342F4427585FF3CF4695379527957D
:10573000A795F0405395C9F77EF41F16BA0B620B7C
:10574000730B840BBAF09150A1F0FF0FBB1F661FC3
:10575000771F881FC2F70EC0BA0F621F731F841F06
:1057600048F4879577956795B795F7959E3F08F02C
:10577000B3CF9395880F08F09927EE0F97958795EB
:105780000895D9D008F481E008950CD00FC107D155
:1057900040F0FED030F021F45F3F19F0F0C051111D
:1057A00039C1F3C014D198F39923C9F35523B1F348
:1057B000951B550BBB27AA2762177307840738F080
:1057C0009F5F5F4F220F331F441FAA1FA9F333D0DF
:1057D0000E2E3AF0E0E830D091505040E695001C93
:1057E000CAF729D0FE2F27D0660F771F881FBB1F4F
:1057F000261737074807AB07B0E809F0BB0B802D29
:10580000BF01FF2793585F4F2AF09E3F510568F074
:10581000B6C000C15F3FECF3983EDCF38695779508
:105820006795B795F7959F5FC9F7880F911D969576
:10583000879597F90895E1E0660F771F881FBB1FD2
:10584000621773078407BA0720F0621B730B840B7F
:10585000BA0BEE1F88F7E095089504D06894B11153
:10586000D9C00895BCD088F09F5790F0B92F9927E0
:10587000B751A0F0D1F0660F771F881F991F1AF05B
:10588000BA95C9F712C0B13081F0C3D0B1E0089524
:10589000C0C0672F782F8827B85F39F0B93FCCF3A5
:1058A000869577956795B395D9F73EF49095809551
:1058B000709561957F4F8F4F9F4F0895E89409C071
:1058C00097FB3EF490958095709561957F4F8F4F33
:1058D0009F4F9923A9F0F92F96E9BB279395F69549
:1058E000879577956795B795F111F8CFFAF4BB0FC7
:1058F00011F460FF1BC06F5F7F4F8F4F9F4F16C02B
:10590000882311F096E911C0772321F09EE8872FB4
:10591000762F05C0662371F096E8862F70E060E070
:105920002AF09A95660F771F881FDAF7880F9695E9
:10593000879597F90895990F0008550FAA0BE0E88D
:10594000FEEF16161706E807F907C0F01216130641
:10595000E407F50798F0621B730B840B950B39F481
:105960000A2661F0232B242B252B21F408950A26E7
:1059700009F4A140A6958FEF811D811D089597F927
:105980009F6780E870E060E008959FEF80EC0895E5
:1059900000240A941616170618060906089500240E
:1059A0000A9412161306140605060895092E039488
:1059B000000C11F4882352F0BB0F40F4BF2B11F4FC
:1059C00060FF04C06F5F7F4F8F4F9F4F089557FD5B
:1059D0009058440F551F59F05F3F71F04795880F5D
:1059E00097FB991F61F09F3F79F0879508951216F4
:1059F00013061406551FF2CF4695F1DF08C01616A0
:105A000017061806991FF1CF869571056105089450
:105A10000895E894BB2766277727CB0197F9089567
:105A20008ADF08F48FEF08950BD0C0CFB1DF28F0E4
:105A3000B6DF18F0952309F0A2CFA7CF1124EACF43
:105A4000C6DFA0F3959FD1F3950F50E0551F629FDD
:105A5000F001729FBB27F00DB11D639FAA27F00DC7
:105A6000B11DAA1F649F6627B00DA11D661F829FEE
:105A70002227B00DA11D621F739FB00DA11D621FD3
:105A8000839FA00D611D221F749F3327A00D611DF0
:105A9000231F849F600D211D822F762F6A2F1124D2
:105AA0009F5750408AF0E1F088234AF0EE0FFF1F25
:105AB000BB1F661F771F881F91505040A9F79E3F5C
:105AC000510570F05CCFA6CF5F3FECF3983EDCF35E
:105AD000869577956795B795F795E7959F5FC1F799
